S00C00004750494F2E73726563E9
S113000045C0000060C000005EC000005CC000008D
S11300105AC0000047C3000076C3000054C000006B
S113002052C0000050C000004EC000004CC0000090
S11300304AC0000048C0000046C0000044C00000A0
S113004042C0000040C000003EC000003CC00000B0
S11300503AC0000038C0000036C0000034C00000C0
S113006032C0000030C000002EC000002CC00000D0
S11300702AC0000028C0000026C0000024C00000E0
S113008022C0000020C000001EC0000011241FBEBA
S1130090CFEFD0E1DEBFCDBF11E0A0E0B1E0E6E3F9
S11300A0FBE000E00BBF02C007900D92A635B1073C
S11300B0D9F721E0A6E5B1E001C01D92AF35B20742
S11300C0E1F7E0D036C59CCF88EF84BB87E085BBE1
S11300D00895BC0120E030E0A0E0B0E00DC0FB01D9
S11300E0E20FF31F4081F901E65AFE4F9081491354
S11300F001C011962F5F3F4F2530310584F31597CA
S113010019F481E080935901089588E085BB83E365
S113011097E00197F1F783B38770813021F48093DE
S1130120580181E3089583B38770823029F481E014
S11301308093580182E3089583B38770843029F44F
S113014081E08093580183E308958FEF97E401974A
S1130150F1F700C0000080E185BB83E397E00197DD
S1130160F1F783B38770813021F48093580184E3DD
S1130170089583B38770823029F481E08093580115
S113018085E3089583B38770843029F481E08093F4
S1130190580186E308958FEF97E40197F1F700C0C3
S11301A0000080E285BB83E397E00197F1F783B316
S11301B08770813021F48093580187E3089583B3D5
S11301C08770823029F481E08093580188E3089590
S11301D083B38770843029F481E08093580189E3E4
S11301E008958FEF97E40197F1F700C0000080E4D1
S11301F085BB83E397E00197F1F783B38770813080
S113020021F4809358018AE2089583B38770823081
S113021029F481E08093580180E3089583B38770C3
S1130220843029F481E08093580183E208958FEFAC
S113023097E40197F1F700C0000080E00895AC0155
S113024020E030E00AC0FA01E20FF31F9081F901C7
S1130250E65AFE4F90832F5F3F4F253031059CF3C4
S113026008955D9BFECF8CB98BB180628BB90895E4
S11302705F9BFECF8CB19BB190689BB991E090934A
S113028058010895CF93DF93CDB7DEB7A9970FB682
S1130290F894DEBF0FBECDBF80E191E0D0DF80E8EF
S11302A082B980E389BF8AE08ABF789480E287BB01
S11302B080EF81BB88B38F7D88BB1BB888E18AB986
S11302C086E0809395001092900013E019B987B3EB
S11302D087BB8FB58A608FBD8EB589618EBD109244
S11302E07A001DBC1CBC209100013091010140E04A
S11302F050E060E070E880E790E0CED337BD26BDE3
S113030026B537B5329522952F7023273F702327C2
S1130310A7E4B3E0DDD39695879596958795969552
S1130320879590937900809378008FEF8ABB8FE054
S1130330809364006AD260D25FD2C6DE1A821982C8
S1130340FE013396DF011D921A95E9F782E1E7E297
S1130350F1E0DE01169601900D928A95E1F710E026
S113036002C01F5F7EDFE6E0F0E0EC0FFD1FE10F4F
S1130370F11D80818111F5CF5CC07ADF813319F4DE
S113038081E08093560180915601813009F456C072
S113039080915601823009F04CC082E1E9E3F1E03A
S11303A0DE01589601900D928A95E1F710E009C09C
S11303B01F5FE8E1F0E0EC0FFD1FE80FF91F8081FB
S11303C050DF812F90E0E6E0F0E0EC0FFD1FE80F36
S11303D0F91F20812111ECCF00E010E011C048DFAB
S11303E090ED980F9A3020F4F801E05FFE4F80837F
S11303F080915801882399F3109258010F5F1F4F81
S113040004301105ACF380E191E019DF10E006C07F
S11304101F5FFC01E05FFE4F808123DF812F90E0AE
S1130420FC01E05FFE4F20812111F2CF81E0809337
S1130430560180915601882309F49FCF809157017A
S11304408823E9F000E010E036C05FDEE1E0F0E090
S1130450EC0FFD1FE00FF11F80838091580188236A
S1130460A1F310925801BFEFEFE7F4E0B150E04080
S1130470F040E1F700C000000F5F1F4F02C000E032
S113048010E0043011054CF31E8210E01BC0F0DEB6
S113049090ED980F9A3038F4E1E0F0E0EC0FFD1F96
S11304A0E00FF11F808380915801882381F310921B
S11304B058010F5F1F4F04301105ACF31E82E5CFC6
S11304C01F5FCFDEE1E0F0E0EC0FFD1FE10FF11D57
S11304D080818111F5CFCE010196FBDD8091590118
S11304E0813009F09CC087B3806887BB2FEF8FE30E
S11304F092E0215080409040E1F700C0000087B3B3
S113050087BB00E010E02AC0F801EE0FFF1FE050A7
S1130510FF4F2081318140E050E060E070E880E7E7
S113052090E0BAD237BD26BD66B577B580E090E0DD
S113053025D220E030E040E950E48CD1F3D170932F
S1130540790060937800AFEFBFE3E2E0A150B040E0
S1130550E040E1F700C000000F5F1F4F08301105B5
S11305609CF226B537B5329522952F7023273F701C
S11305702327A7E4B3E0ACD2969587959695879503
S113058096958795909379008093780080E021C0B8
S113059090E392BBAFEFB7E41197F1F700C000000E
S11305A090E992BBEFEFF7E43197F1F700C0000058
S11305B090EC92BBAFEFB7E41197F1F700C00000E5
S11305C090E692BBEFEFF7E43197F1F700C000003B
S11305D08F5F8C30E8F28AE0EBE4F1E0DE015896BC
S11305E001900D928A95E1F710E002C01F5F39DE99
S11305F0E8E1F0E0EC0FFD1FE10FF11D80818111B6
S1130600F5CF60E0F1D085E191E0E2D0109259019C
S1130610109258011092560113B813B80FCF87B334
S1130620806887BB209100013091010140E050E0D7
S113063060E070E880E790E02FD237BD26BD86B534
S113064097B596958795E8E7F0E0918380832FEF3F
S11306508FE39BE0215080409040E1F700C0000010
S113066026B537B5329522952F7023273F7023275F
S1130670A7E4B3E02DD296958795969587959695A0
S113068087959183808360E080E0AED08AE191E039
S11306909FD010925901109258011092560113B82C
S11306A013B8CCCE1F920F920FB60F9211242F9332
S11306B08F939F93F8948091570181110FC081E02B
S11306C08093570180E483B92FEF8FE794E02150A2
S11306D080409040E1F700C000000CC01092570128
S11306E013B82FEF8FE794E0215080409040E1F75A
S11306F000C0000078949F918F912F910F900FBEAE
S11307000F901F9018951F920F920FB60F921124FD
S11307102F938F939F93F8948091560181110FC06A
S113072082E08093560180E883B92FEF8FE794E04D
S1130730215080409040E1F700C000000CC01092AE
S1130740560113B82FEF8FE794E02150804090407A
S1130750E1F700C0000078949F918F912F910F9042
S11307600FBE0F901F901895E5E6F0E09081916020
S1130770908390819D7F90839081946090839BE788
S11307809A95F1F78BBB8BE78A95F1F780818B7F84
S113079080830895E5E6F0E090819E7F90839081C8
S11307A09D7F90839081946090839BE79A95F1F765
S11307B08BBB8BE78A95F1F780818B7F80830895CB
S11307C0D3DF8FEF93E20197F1F700C000000895A3
S11307D0CF93DF93EC0102C0F3DF2196888181116E
S11307E0FBCFDF91CF91089590E4899F600D112490
S11307F0862F8068CFCF089581E0CCDF8FEF93E21E
S11308000197F1F700C00000089588E3C3DF86E68E
S11308109EE00197F1F7000088E3BCDF86E69EE0E6
S11308200197F1F7000088E3B5DF86E69EE00197C3
S1130830F1F700008CE0AEDF86E69EE00197F1F769
S1130840000086E0A7DF86E69EE00197F1F700004E
S1130850D3CF08950CD0E6C0DED040F0D5D030F030
S113086021F45F3F19F0C7C0511110C1CAC0EBD0C9
S113087098F39923C9F35523B1F3951B550BBB2763
S1130880AA2762177307840738F09F5F5F4F220F10
S1130890331F441FAA1FA9F333D00E2E3AF0E0E809
S11308A030D091505040E695001CCAF729D0FE2F55
S11308B027D0660F771F881FBB1F261737074807E7
S11308C0AB07B0E809F0BB0B802DBF01FF2793589D
S11308D05F4F2AF09E3F510568F08DC0D7C05F3F3F
S11308E0ECF3983EDCF3869577956795B795F79585
S11308F09F5FC9F7880F911D9695879597F908957D
S1130900E1E0660F771F881FBB1F62177307840718
S1130910BA0720F0621B730B840BBA0BEE1F88F727
S1130920E095089598D088F09F5790F0B92F9927B3
S1130930B751A0F0D1F0660F771F881F991F1AF0E6
S1130940BA95C9F712C0B13081F09FD0B1E00895D3
S11309509CC0672F782F8827B85F39F0B93FCCF354
S1130960869577956795B395D9F73EF490958095DC
S1130970709561957F4F8F4F9F4F0895E89409C0FC
S113098097FB3EF490958095709561957F4F8F4FBE
S11309909F4F9923A9F0F92F96E9BB279395F695D4
S11309A0879577956795B795F111F8CFFAF4BB0F52
S11309B011F460FF1BC06F5F7F4F8F4F9F4F16C0B6
S11309C0882311F096E911C0772321F09EE8872F40
S11309D0762F05C0662371F096E8862F70E060E0FC
S11309E02AF09A95660F771F881FDAF7880F969575
S11309F0879597F9089597F99F6780E870E060E01C
S1130A0008959FEF80EC089500240A9416161706A3
S1130A1018060906089500240A94121613061406EB
S1130A2005060895092E0394000C11F4882352F04E
S1130A30BB0F40F4BF2B11F460FF04C06F5F7F4F06
S1130A408F4F9F4F089557FD9058440F551F59F0ED
S1130A505F3F71F04795880F97FB991F61F09F3FA7
S1130A6079F087950895121613061406551FF2CFD0
S1130A704695F1DF08C0161617061806991FF1CF20
S1130A8086957105610508940895E894BB27662747
S1130A907727CB0197F90895052E97FB16F4009458
S1130AA00FD057FD05D023D007FC02D046F408C070
S1130AB050954095309521953F4F4F4F5F4F089586
S1130AC090958095709561957F4F8F4F9F4F0895B6
S1130AD0A29FB001B39FC001A39F700D811D11247B
S1130AE0911DB29F700D811D1124911D0895A1E2E5
S1130AF01A2EAA1BBB1BFD010DC0AA1FBB1FEE1F94
S1130B00FF1FA217B307E407F50720F0A21BB30BDE
S1130B10E40BF50B661F771F881F991F1A9469F75A
S1130B2060957095809590959B01AC01BD01CF01B6
S1090B300895F894FFCFC4
S1130B360B024B029302BA020F037003DB03160483
S1130B4631323334004F70656E004572726F722015
S1130B564E756D62657200496E70757420506173CE
S1130B6673776F7264200D0A00496E736572742080
S1130B766E657720506173730D0A000D0A6F7065F8
S1090B866E200D0A0000C0
S9030000FC
