:1000000045C0000053C0000051C000004FC00000B8
:100010004DC000004CC0000049C0000047C00000B7
:1000200045C0000043C0000041C000003FC00000C8
:100030003DC000003BC0000039C0000037C00000D8
:1000400035C0000033C0000031C000002FC00000E8
:100050002DC000002BC0000029C0000027C00000F8
:1000600025C0000023C0000021C000001FC0000008
:100070001DC000001BC0000019C0000017C0000018
:1000800015C0000013C0000011C0000011241FBEE5
:10009000CFEFD0E1DEBFCDBF21E0A0E0B1E001C0F5
:1000A0001D92A130B207E1F713D02DC0A9CF1F9246
:1000B0000F920FB60F9211248F93809100018095BB
:1000C000809300018F910F900FBE0F901F90189595
:1000D00012B88FEF8ABB80E189BF82E08ABF789433
:1000E0001BBA809100018823D9F38FEF8BBB2FE0DF
:1000F0008EEC96E0215080409040E1F700C0000077
:0A01000010920001EDCFF894FFCF3C
:00000001FF
